{"abi":[{"type":"constructor","inputs":[],"stateMutability":"nonpayable"},{"type":"function","name":"claimPendingWithdrawal","inputs":[{"name":"from","type":"address","internalType":"address"},{"name":"to","type":"address","internalType":"address payable"}],"outputs":[],"stateMutability":"nonpayable"},{"type":"function","name":"collaterals","inputs":[{"name":"","type":"address","internalType":"address"}],"outputs":[{"name":"","type":"uint256","internalType":"uint256"}],"stateMutability":"view"},{"type":"function","name":"deposit","inputs":[],"outputs":[],"stateMutability":"payable"},{"type":"function","name":"depositCollateral","inputs":[],"outputs":[],"stateMutability":"payable"},{"type":"function","name":"deposits","inputs":[{"name":"","type":"address","internalType":"address"}],"outputs":[{"name":"","type":"uint256","internalType":"uint256"}],"stateMutability":"view"},{"type":"function","name":"emergencyWithdraw","inputs":[],"outputs":[],"stateMutability":"nonpayable"},{"type":"function","name":"getCollateral","inputs":[{"name":"user","type":"address","internalType":"address"}],"outputs":[{"name":"","type":"uint256","internalType":"uint256"}],"stateMutability":"view"},{"type":"function","name":"getDeposit","inputs":[{"name":"user","type":"address","internalType":"address"}],"outputs":[{"name":"","type":"uint256","internalType":"uint256"}],"stateMutability":"view"},{"type":"function","name":"getTotalCollaterals","inputs":[],"outputs":[{"name":"","type":"uint256","internalType":"uint256"}],"stateMutability":"view"},{"type":"function","name":"getTotalDeposits","inputs":[],"outputs":[{"name":"","type":"uint256","internalType":"uint256"}],"stateMutability":"view"},{"type":"function","name":"owner","inputs":[],"outputs":[{"name":"","type":"address","internalType":"address"}],"stateMutability":"view"},{"type":"function","name":"pendingWithdrawals","inputs":[{"name":"","type":"address","internalType":"address"}],"outputs":[{"name":"","type":"uint256","internalType":"uint256"}],"stateMutability":"view"},{"type":"function","name":"renounceOwnership","inputs":[],"outputs":[],"stateMutability":"nonpayable"},{"type":"function","name":"totalCollaterals","inputs":[],"outputs":[{"name":"","type":"uint256","internalType":"uint256"}],"stateMutability":"view"},{"type":"function","name":"totalDeposits","inputs":[],"outputs":[{"name":"","type":"uint256","internalType":"uint256"}],"stateMutability":"view"},{"type":"function","name":"transferOwnership","inputs":[{"name":"newOwner","type":"address","internalType":"address"}],"outputs":[],"stateMutability":"nonpayable"},{"type":"function","name":"withdraw","inputs":[{"name":"amount","type":"uint256","internalType":"uint256"}],"outputs":[],"stateMutability":"nonpayable"},{"type":"function","name":"withdrawCollateral","inputs":[{"name":"_to","type":"address","internalType":"address"},{"name":"amount","type":"uint256","internalType":"uint256"}],"outputs":[],"stateMutability":"nonpayable"},{"type":"function","name":"withdrawDust","inputs":[],"outputs":[],"stateMutability":"nonpayable"},{"type":"event","name":"CollateralDeposited","inputs":[{"name":"user","type":"address","indexed":true,"internalType":"address"},{"name":"amount","type":"uint256","indexed":false,"internalType":"uint256"}],"anonymous":false},{"type":"event","name":"CollateralWithdrawn","inputs":[{"name":"user","type":"address","indexed":true,"internalType":"address"},{"name":"amount","type":"uint256","indexed":false,"internalType":"uint256"}],"anonymous":false},{"type":"event","name":"Deposited","inputs":[{"name":"user","type":"address","indexed":true,"internalType":"address"},{"name":"amount","type":"uint256","indexed":false,"internalType":"uint256"}],"anonymous":false},{"type":"event","name":"DustWithdrawn","inputs":[{"name":"owner","type":"address","indexed":true,"internalType":"address"},{"name":"amount","type":"uint256","indexed":false,"internalType":"uint256"}],"anonymous":false},{"type":"event","name":"EmergencyWithdrawn","inputs":[{"name":"amount","type":"uint256","indexed":false,"internalType":"uint256"}],"anonymous":false},{"type":"event","name":"OwnershipTransferred","inputs":[{"name":"previousOwner","type":"address","indexed":true,"internalType":"address"},{"name":"newOwner","type":"address","indexed":true,"internalType":"address"}],"anonymous":false},{"type":"event","name":"PendingWithdrawalClaimed","inputs":[{"name":"user","type":"address","indexed":true,"internalType":"address"},{"name":"amount","type":"uint256","indexed":false,"internalType":"uint256"}],"anonymous":false},{"type":"event","name":"PendingWithdrawalCreated","inputs":[{"name":"owner","type":"address","indexed":true,"internalType":"address"},{"name":"amount","type":"uint256","indexed":false,"internalType":"uint256"}],"anonymous":false},{"type":"event","name":"Withdrawn","inputs":[{"name":"user","type":"address","indexed":true,"internalType":"address"},{"name":"amount","type":"uint256","indexed":false,"internalType":"uint256"}],"anonymous":false},{"type":"error","name":"OwnableInvalidOwner","inputs":[{"name":"owner","type":"address","internalType":"address"}]},{"type":"error","name":"OwnableUnauthorizedAccount","inputs":[{"name":"account","type":"address","internalType":"address"}]}],"bytecode":{"object":"0x608060405234801561000f575f5ffd5b50335f73ffffffffffffffffffffffffffffffffffffffff168173ffffffffffffffffffffffffffffffffffffffff1603610081575f6040517f1e4fbdf70000000000000000000000000000000000000000000000000000000081526004016100789190610196565b60405180910390fd5b6100908161009660201b60201c565b506101af565b5f5f5f9054906101000a900473ffffffffffffffffffffffffffffffffffffffff169050815f5f6101000a81548173ffffffffffffffffffffffffffffffffffffffff021916908373ffffffffffffffffffffffffffffffffffffffff1602179055508173ffffffffffffffffffffffffffffffffffffffff168173ffffffffffffffffffffffffffffffffffffffff167f8be0079c531659141344cd1fd0a4f28419497f9722a3daafe3b4186f6b6457e060405160405180910390a35050565b5f73ffffffffffffffffffffffffffffffffffffffff82169050919050565b5f61018082610157565b9050919050565b61019081610176565b82525050565b5f6020820190506101a95f830184610187565b92915050565b611c13806101bc5f395ff3fe608060405260043610610113575f3560e01c80638da5cb5b1161009f578063e1254fba11610063578063e1254fba146102f3578063eeb97d3b1461032f578063f2fde38b1461036b578063f3f4370314610393578063fc7e286d146103cf57610113565b80638da5cb5b146102575780639b56d6c914610281578063cfb550f1146102bd578063d0e30db0146102d3578063db2e21bc146102dd57610113565b8063423ec4be116100e6578063423ec4be146101bb5780636f758140146101e3578063715018a6146101ed57806374bb984f146102035780637d8820971461022d57610113565b8063168a4822146101175780632e1a7d4d1461014157806330504b6f14610169578063350c35e914610193575b5f5ffd5b348015610122575f5ffd5b5061012b61040b565b60405161013891906114ab565b60405180910390f35b34801561014c575f5ffd5b50610167600480360381019061016291906114f2565b610414565b005b348015610174575f5ffd5b5061017d6106bd565b60405161018a91906114ab565b60405180910390f35b34801561019e575f5ffd5b506101b960048036038101906101b49190611577565b6106c3565b005b3480156101c6575f5ffd5b506101e160048036038101906101dc91906115f0565b610933565b005b6101eb610b7e565b005b3480156101f8575f5ffd5b50610201610c7b565b005b34801561020e575f5ffd5b50610217610c8e565b60405161022491906114ab565b60405180910390f35b348015610238575f5ffd5b50610241610c97565b60405161024e91906114ab565b60405180910390f35b348015610262575f5ffd5b5061026b610c9d565b604051610278919061163d565b60405180910390f35b34801561028c575f5ffd5b506102a760048036038101906102a29190611656565b610cc4565b6040516102b491906114ab565b60405180910390f35b3480156102c8575f5ffd5b506102d1610d0a565b005b6102db610efc565b005b3480156102e8575f5ffd5b506102f1610ff9565b005b3480156102fe575f5ffd5b5061031960048036038101906103149190611656565b61123b565b60405161032691906114ab565b60405180910390f35b34801561033a575f5ffd5b5061035560048036038101906103509190611656565b611281565b60405161036291906114ab565b60405180910390f35b348015610376575f5ffd5b50610391600480360381019061038c9190611656565b611296565b005b34801561039e575f5ffd5b506103b960048036038101906103b49190611656565b61131a565b6040516103c691906114ab565b60405180910390f35b3480156103da575f5ffd5b506103f560048036038101906103f09190611656565b61132f565b60405161040291906114ab565b60405180910390f35b5f600454905090565b60065f9054906101000a900460ff1615610463576040517f08c379a000000000000000000000000000000000000000000000000000000000815260040161045a906116db565b60405180910390fd5b600160065f6101000a81548160ff0219169083151502179055505f81116104bf576040517f08c379a00000000000000000000000000000000000000000000000000000000081526004016104b690611743565b60405180910390fd5b8060015f3373ffffffffffffffffffffffffffffffffffffffff1673ffffffffffffffffffffffffffffffffffffffff1681526020019081526020015f2054101561053f576040517f08c379a0000000000000000000000000000000000000000000000000000000008152600401610536906117ab565b60405180910390fd5b8060015f3373ffffffffffffffffffffffffffffffffffffffff1673ffffffffffffffffffffffffffffffffffffffff1681526020019081526020015f205f82825461058b91906117f6565b925050819055508060045f8282546105a391906117f6565b925050819055505f3373ffffffffffffffffffffffffffffffffffffffff16826040516105cf90611856565b5f6040518083038185875af1925050503d805f8114610609576040519150601f19603f3d011682016040523d82523d5f602084013e61060e565b606091505b5050905080610652576040517f08c379a0000000000000000000000000000000000000000000000000000000008152600401610649906118b4565b60405180910390fd5b3373ffffffffffffffffffffffffffffffffffffffff167f7084f5476618d8e60b11ef0d7d3f06914655adb8793e28ff7f018d4c76d505d58360405161069891906114ab565b60405180910390a2505f60065f6101000a81548160ff02191690831515021790555050565b60055481565b6106cb611344565b60065f9054906101000a900460ff161561071a576040517f08c379a0000000000000000000000000000000000000000000000000000000008152600401610711906116db565b60405180910390fd5b600160065f6101000a81548160ff0219169083151502179055508060025f8473ffffffffffffffffffffffffffffffffffffffff1673ffffffffffffffffffffffffffffffffffffffff1681526020019081526020015f205410156107b4576040517f08c379a00000000000000000000000000000000000000000000000000000000081526004016107ab9061191c565b60405180910390fd5b8060025f8473ffffffffffffffffffffffffffffffffffffffff1673ffffffffffffffffffffffffffffffffffffffff1681526020019081526020015f205f82825461080091906117f6565b925050819055508060055f82825461081891906117f6565b925050819055505f8273ffffffffffffffffffffffffffffffffffffffff168260405161084490611856565b5f6040518083038185875af1925050503d805f811461087e576040519150601f19603f3d011682016040523d82523d5f602084013e610883565b606091505b50509050806108c7576040517f08c379a00000000000000000000000000000000000000000000000000000000081526004016108be906118b4565b60405180910390fd5b8273ffffffffffffffffffffffffffffffffffffffff167fc30fcfbcaac9e0deffa719714eaa82396ff506a0d0d0eebe170830177288715d8360405161090d91906114ab565b60405180910390a2505f60065f6101000a81548160ff0219169083151502179055505050565b61093b611344565b60065f9054906101000a900460ff161561098a576040517f08c379a0000000000000000000000000000000000000000000000000000000008152600401610981906116db565b60405180910390fd5b600160065f6101000a81548160ff0219169083151502179055505f60035f8473ffffffffffffffffffffffffffffffffffffffff1673ffffffffffffffffffffffffffffffffffffffff1681526020019081526020015f205490505f8111610a27576040517f08c379a0000000000000000000000000000000000000000000000000000000008152600401610a1e90611984565b60405180910390fd5b5f60035f8573ffffffffffffffffffffffffffffffffffffffff1673ffffffffffffffffffffffffffffffffffffffff1681526020019081526020015f20819055505f8273ffffffffffffffffffffffffffffffffffffffff1682604051610a8e90611856565b5f6040518083038185875af1925050503d805f8114610ac8576040519150601f19603f3d011682016040523d82523d5f602084013e610acd565b606091505b5050905080610b11576040517f08c379a0000000000000000000000000000000000000000000000000000000008152600401610b08906119ec565b60405180910390fd5b8373ffffffffffffffffffffffffffffffffffffffff167fe5304184a6a9ff3df1acda6f33177e55070a87c51697fd5b7706ceb196ffc3cc83604051610b5791906114ab565b60405180910390a250505f60065f6101000a81548160ff0219169083151502179055505050565b5f3411610bc0576040517f08c379a0000000000000000000000000000000000000000000000000000000008152600401610bb790611a54565b60405180910390fd5b3460025f3373ffffffffffffffffffffffffffffffffffffffff1673ffffffffffffffffffffffffffffffffffffffff1681526020019081526020015f205f828254610c0c9190611a72565b925050819055503460055f828254610c249190611a72565b925050819055503373ffffffffffffffffffffffffffffffffffffffff167fd7243f6f8212d5188fd054141cf6ea89cfc0d91facb8c3afe2f88a135848014234604051610c7191906114ab565b60405180910390a2565b610c83611344565b610c8c5f6113cb565b565b5f600554905090565b60045481565b5f5f5f9054906101000a900473ffffffffffffffffffffffffffffffffffffffff16905090565b5f60025f8373ffffffffffffffffffffffffffffffffffffffff1673ffffffffffffffffffffffffffffffffffffffff1681526020019081526020015f20549050919050565b610d12611344565b60065f9054906101000a900460ff1615610d61576040517f08c379a0000000000000000000000000000000000000000000000000000000008152600401610d58906116db565b60405180910390fd5b600160065f6101000a81548160ff0219169083151502179055505f60055460045447610d8d91906117f6565b610d9791906117f6565b90505f8111610ddb576040517f08c379a0000000000000000000000000000000000000000000000000000000008152600401610dd290611aef565b60405180910390fd5b5f610de4610c9d565b73ffffffffffffffffffffffffffffffffffffffff1682604051610e0790611856565b5f6040518083038185875af1925050503d805f8114610e41576040519150601f19603f3d011682016040523d82523d5f602084013e610e46565b606091505b5050905080610e8a576040517f08c379a0000000000000000000000000000000000000000000000000000000008152600401610e81906118b4565b60405180910390fd5b610e92610c9d565b73ffffffffffffffffffffffffffffffffffffffff167f1a196790e94751831fb9ca8c3f72d91d761b8d6815921535b5d8545d72f07bb183604051610ed791906114ab565b60405180910390a250505f60065f6101000a81548160ff021916908315150217905550565b5f3411610f3e576040517f08c379a0000000000000000000000000000000000000000000000000000000008152600401610f3590611b57565b60405180910390fd5b3460015f3373ffffffffffffffffffffffffffffffffffffffff1673ffffffffffffffffffffffffffffffffffffffff1681526020019081526020015f205f828254610f8a9190611a72565b925050819055503460045f828254610fa29190611a72565b925050819055503373ffffffffffffffffffffffffffffffffffffffff167f2da466a7b24304f47e87fa2e1e5a81b9831ce54fec19055ce277ca2f39ba42c434604051610fef91906114ab565b60405180910390a2565b611001611344565b60065f9054906101000a900460ff1615611050576040517f08c379a0000000000000000000000000000000000000000000000000000000008152600401611047906116db565b60405180910390fd5b600160065f6101000a81548160ff0219169083151502179055505f4790505f81116110b0576040517f08c379a00000000000000000000000000000000000000000000000000000000081526004016110a790611bbf565b60405180910390fd5b5f6110b9610c9d565b73ffffffffffffffffffffffffffffffffffffffff16826040516110dc90611856565b5f6040518083038185875af1925050503d805f8114611116576040519150601f19603f3d011682016040523d82523d5f602084013e61111b565b606091505b50509050806111d8578160035f611130610c9d565b73ffffffffffffffffffffffffffffffffffffffff1673ffffffffffffffffffffffffffffffffffffffff1681526020019081526020015f205f8282546111779190611a72565b92505081905550611186610c9d565b73ffffffffffffffffffffffffffffffffffffffff167f0956274025064bd0d9e3344d54e51e4e137b30e82cd0d9990d7dbd9f95052d0f836040516111cb91906114ab565b60405180910390a261121e565b5f6004819055505f6005819055507ff639e28400db464cf64a55c42636df1b181f180f2ad8519cbcec893760e6e6b78260405161121591906114ab565b60405180910390a15b50505f60065f6101000a81548160ff021916908315150217905550565b5f60015f8373ffffffffffffffffffffffffffffffffffffffff1673ffffffffffffffffffffffffffffffffffffffff1681526020019081526020015f20549050919050565b6002602052805f5260405f205f915090505481565b61129e611344565b5f73ffffffffffffffffffffffffffffffffffffffff168173ffffffffffffffffffffffffffffffffffffffff160361130e575f6040517f1e4fbdf7000000000000000000000000000000000000000000000000000000008152600401611305919061163d565b60405180910390fd5b611317816113cb565b50565b6003602052805f5260405f205f915090505481565b6001602052805f5260405f205f915090505481565b61134c61148c565b73ffffffffffffffffffffffffffffffffffffffff1661136a610c9d565b73ffffffffffffffffffffffffffffffffffffffff16146113c95761138d61148c565b6040517f118cdaa70000000000000000000000000000000000000000000000000000000081526004016113c0919061163d565b60405180910390fd5b565b5f5f5f9054906101000a900473ffffffffffffffffffffffffffffffffffffffff169050815f5f6101000a81548173ffffffffffffffffffffffffffffffffffffffff021916908373ffffffffffffffffffffffffffffffffffffffff1602179055508173ffffffffffffffffffffffffffffffffffffffff168173ffffffffffffffffffffffffffffffffffffffff167f8be0079c531659141344cd1fd0a4f28419497f9722a3daafe3b4186f6b6457e060405160405180910390a35050565b5f33905090565b5f819050919050565b6114a581611493565b82525050565b5f6020820190506114be5f83018461149c565b92915050565b5f5ffd5b6114d181611493565b81146114db575f5ffd5b50565b5f813590506114ec816114c8565b92915050565b5f60208284031215611507576115066114c4565b5b5f611514848285016114de565b91505092915050565b5f73ffffffffffffffffffffffffffffffffffffffff82169050919050565b5f6115468261151d565b9050919050565b6115568161153c565b8114611560575f5ffd5b50565b5f813590506115718161154d565b92915050565b5f5f6040838503121561158d5761158c6114c4565b5b5f61159a85828601611563565b92505060206115ab858286016114de565b9150509250929050565b5f6115bf8261151d565b9050919050565b6115cf816115b5565b81146115d9575f5ffd5b50565b5f813590506115ea816115c6565b92915050565b5f5f60408385031215611606576116056114c4565b5b5f61161385828601611563565b9250506020611624858286016115dc565b9150509250929050565b6116378161153c565b82525050565b5f6020820190506116505f83018461162e565b92915050565b5f6020828403121561166b5761166a6114c4565b5b5f61167884828501611563565b91505092915050565b5f82825260208201905092915050565b7f5265656e7472656e6379206465746563746564000000000000000000000000005f82015250565b5f6116c5601383611681565b91506116d082611691565b602082019050919050565b5f6020820190508181035f8301526116f2816116b9565b9050919050565b7f43616e6e6f7420776974686472617720300000000000000000000000000000005f82015250565b5f61172d601183611681565b9150611738826116f9565b602082019050919050565b5f6020820190508181035f83015261175a81611721565b9050919050565b7f496e73756666696369656e742062616c616e63650000000000000000000000005f82015250565b5f611795601483611681565b91506117a082611761565b602082019050919050565b5f6020820190508181035f8301526117c281611789565b9050919050565b7f4e487b71000000000000000000000000000000000000000000000000000000005f52601160045260245ffd5b5f61180082611493565b915061180b83611493565b9250828203905081811115611823576118226117c9565b5b92915050565b5f81905092915050565b50565b5f6118415f83611829565b915061184c82611833565b5f82019050919050565b5f61186082611836565b9150819050919050565b7f5472616e73666572206661696c656400000000000000000000000000000000005f82015250565b5f61189e600f83611681565b91506118a98261186a565b602082019050919050565b5f6020820190508181035f8301526118cb81611892565b9050919050565b7f496e73756666696369656e7420636f6c6c61746572616c0000000000000000005f82015250565b5f611906601783611681565b9150611911826118d2565b602082019050919050565b5f6020820190508181035f830152611933816118fa565b9050919050565b7f4e6f2070656e64696e67207769746864726177616c00000000000000000000005f82015250565b5f61196e601583611681565b91506119798261193a565b602082019050919050565b5f6020820190508181035f83015261199b81611962565b9050919050565b7f436c61696d206661696c656400000000000000000000000000000000000000005f82015250565b5f6119d6600c83611681565b91506119e1826119a2565b602082019050919050565b5f6020820190508181035f830152611a03816119ca565b9050919050565b7f76616c7565206d757374206265206d6f7265207468616e2030000000000000005f82015250565b5f611a3e601983611681565b9150611a4982611a0a565b602082019050919050565b5f6020820190508181035f830152611a6b81611a32565b9050919050565b5f611a7c82611493565b9150611a8783611493565b9250828201905080821115611a9f57611a9e6117c9565b5b92915050565b7f4e6f206475737420746f207769746864726177000000000000000000000000005f82015250565b5f611ad9601383611681565b9150611ae482611aa5565b602082019050919050565b5f6020820190508181035f830152611b0681611acd565b9050919050565b7f43616e6e6f74206465706f7369742030000000000000000000000000000000005f82015250565b5f611b41601083611681565b9150611b4c82611b0d565b602082019050919050565b5f6020820190508181035f830152611b6e81611b35565b9050919050565b7f4e6f2066756e647320746f2077697468647261770000000000000000000000005f82015250565b5f611ba9601483611681565b9150611bb482611b75565b602082019050919050565b5f6020820190508181035f830152611bd681611b9d565b905091905056fea264697066735822122001861f09b48662bb8967b171ef8f1bbe936a034ccac53fdfbfa2c9748efe69f664736f6c63430008210033","linkReferences":{}},"methodIdentifiers":{"claimPendingWithdrawal(address,address)":"423ec4be","collaterals(address)":"eeb97d3b","deposit()":"d0e30db0","depositCollateral()":"6f758140","deposits(address)":"fc7e286d","emergencyWithdraw()":"db2e21bc","getCollateral(address)":"9b56d6c9","getDeposit(address)":"e1254fba","getTotalCollaterals()":"74bb984f","getTotalDeposits()":"168a4822","owner()":"8da5cb5b","pendingWithdrawals(address)":"f3f43703","renounceOwnership()":"715018a6","totalCollaterals()":"30504b6f","totalDeposits()":"7d882097","transferOwnership(address)":"f2fde38b","withdraw(uint256)":"2e1a7d4d","withdrawCollateral(address,uint256)":"350c35e9","withdrawDust()":"cfb550f1"},"id":21}