{"abi":[{"type":"function","name":"deposit","inputs":[],"outputs":[],"stateMutability":"payable"},{"type":"function","name":"deposits","inputs":[{"name":"","type":"address","internalType":"address"}],"outputs":[{"name":"","type":"uint256","internalType":"uint256"}],"stateMutability":"view"},{"type":"function","name":"getDeposit","inputs":[{"name":"user","type":"address","internalType":"address"}],"outputs":[{"name":"","type":"uint256","internalType":"uint256"}],"stateMutability":"view"},{"type":"function","name":"getTotalDeposits","inputs":[],"outputs":[{"name":"","type":"uint256","internalType":"uint256"}],"stateMutability":"view"},{"type":"function","name":"totalDeposits","inputs":[],"outputs":[{"name":"","type":"uint256","internalType":"uint256"}],"stateMutability":"view"},{"type":"function","name":"withdraw","inputs":[{"name":"amount","type":"uint256","internalType":"uint256"}],"outputs":[],"stateMutability":"nonpayable"},{"type":"event","name":"Deposited","inputs":[{"name":"user","type":"address","indexed":true,"internalType":"address"},{"name":"amount","type":"uint256","indexed":false,"internalType":"uint256"}],"anonymous":false},{"type":"event","name":"Withdrawn","inputs":[{"name":"user","type":"address","indexed":true,"internalType":"address"},{"name":"amount","type":"uint256","indexed":false,"internalType":"uint256"}],"anonymous":false}],"bytecode":{"object":"0x6080604052348015600e575f5ffd5b506108a88061001c5f395ff3fe608060405260043610610054575f3560e01c8063168a4822146100585780632e1a7d4d146100825780637d882097146100aa578063d0e30db0146100d4578063e1254fba146100de578063fc7e286d1461011a575b5f5ffd5b348015610063575f5ffd5b5061006c610156565b60405161007991906104f7565b60405180910390f35b34801561008d575f5ffd5b506100a860048036038101906100a3919061053e565b61015f565b005b3480156100b5575f5ffd5b506100be610384565b6040516100cb91906104f7565b60405180910390f35b6100dc61038a565b005b3480156100e9575f5ffd5b5061010460048036038101906100ff91906105c3565b610486565b60405161011191906104f7565b60405180910390f35b348015610125575f5ffd5b50610140600480360381019061013b91906105c3565b6104cb565b60405161014d91906104f7565b60405180910390f35b5f600154905090565b5f81116101a1576040517f08c379a000000000000000000000000000000000000000000000000000000000815260040161019890610648565b60405180910390fd5b805f5f3373ffffffffffffffffffffffffffffffffffffffff1673ffffffffffffffffffffffffffffffffffffffff1681526020019081526020015f20541015610220576040517f08c379a0000000000000000000000000000000000000000000000000000000008152600401610217906106b0565b60405180910390fd5b805f5f3373ffffffffffffffffffffffffffffffffffffffff1673ffffffffffffffffffffffffffffffffffffffff1681526020019081526020015f205f82825461026b91906106fb565b925050819055508060015f82825461028391906106fb565b925050819055505f3373ffffffffffffffffffffffffffffffffffffffff16826040516102af9061075b565b5f6040518083038185875af1925050503d805f81146102e9576040519150601f19603f3d011682016040523d82523d5f602084013e6102ee565b606091505b5050905080610332576040517f08c379a0000000000000000000000000000000000000000000000000000000008152600401610329906107b9565b60405180910390fd5b3373ffffffffffffffffffffffffffffffffffffffff167f7084f5476618d8e60b11ef0d7d3f06914655adb8793e28ff7f018d4c76d505d58360405161037891906104f7565b60405180910390a25050565b60015481565b5f34116103cc576040517f08c379a00000000000000000000000000000000000000000000000000000000081526004016103c390610821565b60405180910390fd5b345f5f3373ffffffffffffffffffffffffffffffffffffffff1673ffffffffffffffffffffffffffffffffffffffff1681526020019081526020015f205f828254610417919061083f565b925050819055503460015f82825461042f919061083f565b925050819055503373ffffffffffffffffffffffffffffffffffffffff167f2da466a7b24304f47e87fa2e1e5a81b9831ce54fec19055ce277ca2f39ba42c43460405161047c91906104f7565b60405180910390a2565b5f5f5f8373ffffffffffffffffffffffffffffffffffffffff1673ffffffffffffffffffffffffffffffffffffffff1681526020019081526020015f20549050919050565b5f602052805f5260405f205f915090505481565b5f819050919050565b6104f1816104df565b82525050565b5f60208201905061050a5f8301846104e8565b92915050565b5f5ffd5b61051d816104df565b8114610527575f5ffd5b50565b5f8135905061053881610514565b92915050565b5f6020828403121561055357610552610510565b5b5f6105608482850161052a565b91505092915050565b5f73ffffffffffffffffffffffffffffffffffffffff82169050919050565b5f61059282610569565b9050919050565b6105a281610588565b81146105ac575f5ffd5b50565b5f813590506105bd81610599565b92915050565b5f602082840312156105d8576105d7610510565b5b5f6105e5848285016105af565b91505092915050565b5f82825260208201905092915050565b7f43616e6e6f7420776974686472617720300000000000000000000000000000005f82015250565b5f6106326011836105ee565b915061063d826105fe565b602082019050919050565b5f6020820190508181035f83015261065f81610626565b9050919050565b7f496e73756666696369656e742062616c616e63650000000000000000000000005f82015250565b5f61069a6014836105ee565b91506106a582610666565b602082019050919050565b5f6020820190508181035f8301526106c78161068e565b9050919050565b7f4e487b71000000000000000000000000000000000000000000000000000000005f52601160045260245ffd5b5f610705826104df565b9150610710836104df565b9250828203905081811115610728576107276106ce565b5b92915050565b5f81905092915050565b50565b5f6107465f8361072e565b915061075182610738565b5f82019050919050565b5f6107658261073b565b9150819050919050565b7f5472616e73666572206661696c656400000000000000000000000000000000005f82015250565b5f6107a3600f836105ee565b91506107ae8261076f565b602082019050919050565b5f6020820190508181035f8301526107d081610797565b9050919050565b7f43616e6e6f74206465706f7369742030000000000000000000000000000000005f82015250565b5f61080b6010836105ee565b9150610816826107d7565b602082019050919050565b5f6020820190508181035f830152610838816107ff565b9050919050565b5f610849826104df565b9150610854836104df565b925082820190508082111561086c5761086b6106ce565b5b9291505056fea264697066735822122009b5d84ca34c0a2becb66172d5def9178127fee9733eeae2d3cd3df686a64d7164736f6c63430008210033","linkReferences":{}},"methodIdentifiers":{"deposit()":"d0e30db0","deposits(address)":"fc7e286d","getDeposit(address)":"e1254fba","getTotalDeposits()":"168a4822","totalDeposits()":"7d882097","withdraw(uint256)":"2e1a7d4d"},"id":19}